:0C0000003CC0FECFFDCFFCCFFBCFFACF01
:10000C00B0C0F8CFF7CFF6CFF5CF75C0F3CFF2CFA6
:10001C00F1CFF0CFEFCFEECFEDCF05003F000600D4
:10002C005B004F0066006D007D0007007F006F00D5
:10003C004000F800F400EC00DC00BC0090009200E2
:10004C009400960098009A009C00010000000100AA
:10005C00040026001600600128000A0076013E000C
:10006C000E00800148000100080056000000F894C2
:10007C00EE27ECBBF1E0FBBFEBBFE5BFF8E1F1BD58
:10008C00E1BD8DE0A2E0BB27ED938A95E9F780E016
:10009C0094E0A0E6ED930197E9F7EAE5F0E08591AD
:1000AC009591009761F0A591B59105901590BF01C0
:1000BC00F00105900D920197E1F7FB01F0CFEFE510
:1000CC00EDBFE4E0EEBFC0E6D1E053C0E7E08E2E1A
:1000DC0008950A9300E0083060F4E02FF0E0ED564C
:1000EC00FE4FE081ECB95D9902C00000FCCF0F5FC0
:1000FC00F2CF099108950A921A92FA926A937A931E
:10010C008A939A93AA93BA93EA93FA93EFB7EA93E2
:10011C00A92DB0E0A556BE4FECB1EC93E92DF0E063
:10012C00E556FE4FE081ED3049F4EBE9F1E0FA934E
:10013C00EA936BD14E2E9924C9DF05C09394E3E06A
:10014C00E91508F49924E991EFBFF991E991B99176
:10015C00A9919991899179916991F9901990099046
:10016C001895EA93EFB7EA937724E991EFBFE991F9
:10017C001895EFEFE7BB08D1ECEFE1BBE2BBE1E098
:10018C00E9B9E8E9EAB9E0E2E0B9E0E0E1B9EBE5C8
:10019C00EBBDEDE8EABDE0E1E9BF7894E0E0EFBD4E
:1001AC00E8E0EEBD66D0E8EEF3E0F1D0229781E016
:1001BC00A0E0B0E0E8E5F0E094D1EFEF7E2EE82D82
:1001CC00E150E8D061D0F0D010F4F1D028F0ECD0B0
:1001DC0010F0EDD008F407C0541410F0E1E001C0A9
:1001EC00E0E0E8830EC0E0D010F0E1D008F002C0EF
:1001FC00E0E0E883D9D010F4DAD008F402C0E1E0F2
:10020C00E883E881E03001F15ED063DFEEB5E560B4
:10021C00EEBD7720C9F0E981F0E0E257FE4FE081B6
:10022C00E8BBC8D0EA1BA6E7B1E0C7D0E2BBE3E06D
:10023C00F0E0ADD0A9D0E981EF5FE983BBD0EA173C
:10024C0010F4E0E0E983E5CF8394E8E0E81511F4DD
:10025C00E1E08E2E2296AACFFFCFB6D0B8D0F1F324
:10026C00B9D0B5D0F1F3EEEEBAD0B1D0F1F3BBD03A
:10027C0028C00A9300E0073028F4E02F8BD0EDDF84
:10028C000F5FF9CF099108959FD0A1D0F1F3A2D0BF
:10029C009ED0F1F3EAEAA3D09AD0F1F395D097D09F
:1002AC00F1F3E881E1609BD092D0F1F3E4ECE6BF8E
:1002BC008ED0F1F353B0E4E8E6BF89D0F1F363B02C
:1002CC0092D02196089505D1E82D90D0E0938E011F
:1002DC00E82DE05DE0939301E0E2E093940157FE9A
:1002EC0011C0EFEFE525EF5F5E2E83D009F45A9431
:1002FC00E0917401F0917501E0938F01EDE2E093D0
:10030C0095010BC079D0D0D02E2FE22F6FD0E09377
:10031C008F01E22FE05DE09395016ED070D072D02A
:10032C00C3D01E2FE12F62D0E0939001E12FE05D4E
:10033C00E093960167D063D0052DE02F57D0E0688D
:10034C00E0939101E02FE05DE0939701EEE2E09302
:10035C0098014FD051F4E0916A01F0916B01E09358
:10036C009201E5E3E093990109C0E0916001F091FD
:10037C006101E0939201E0E3E0939901EDE0E093F9
:10038C009A01ABD023960895E0E0E8BB0895FA9368
:10039C00EA937EC0A0E8B1E0F0E0EE0FFF1FAE0FD5
:1003AC00BF1F93D0EA930895E0E85E160895E0E845
:1003BC004E160895A981E4E00895F0E0EE0FFF1FBA
:1003CC00AE0FBF1F82D00895E4EAE6BF0895E6B7EA
:1003DC00E0780895E881E3B9E4E8E6BF0895E3B96D
:1003EC00E4E8E6BF0895E4E9E6BF0895A0E6B1E0CD
:1003FC00E4CFE0E8E6150895A52DE4E6089562D073
:10040C005E2E0895A52DEAE00895B981A881EC919E
:10041C00EA9334D0EE2311F01196F9CFE894EC91D5
:10042C00ED3211F4689402C0EB3209F41196662790
:10043C007727EC91EA931AD0EE2381F0E62FF72F71
:10044C00660F771F660F771F6E0F7F1F660F771F64
:10045C00ED91FF27E0536E0F7F1FEBCFE62FF72FA9
:10046C001EF4E095F095319622960895E1E0F9910D
:10047C00F03310F0FA3308F0EE270895E1E0F9912B
:10048C00F03229F0F93019F0FD3009F0EE2708951B
:10049C00E991F991309639F080ED97E00197F1F7F9
:1004AC00A8953197C9F70895002498E0AA0F001C6D
:1004BC000E1A10F40E0E01C0A1609A95B9F7EA2F2E
:1004CC00A02D0895F1DFEA2F0895ED91FC9111977D
:1004DC0008952A931A930A9308952A811981088101
:1004EC000895AC0FBD1F05900D928A95E1F7089504
:00000001FF
